:1000000029C04DC04CC04BC0E9C37CC848C047C0E4
:1000100046C045C044C043C042C041C040C0756EE8
:100020006B6E6F776E203D20307800010200000477
:100030000001020408102002020202020200000075
:10004000003600000000003800000000003700000B
:10005000C903D60311241FBECFE5D2E0DEBFCDBF5A
:1000600010E0A0E6B0E0E6E9FDE102C005900D92E7
:10007000A03CB107D9F721E0A0ECB0E001C01D928F
:10008000A939B207E1F710E0C9E2D0E003C0219737
:10009000FE012BDEC832D107D1F78FDB70CEB0CF97
:1000A0001F93CF93DF93DC0152962D913C91539790
:1000B0002115310539F481E090E013969C938E93DD
:1000C00012973DC01D96ED91FC911E971C969C9138
:1000D0001C97892F80951FB754964C91549741FBDC
:1000E000772770F941FD6095F8944081772311F0EE
:1000F000492B01C048234083E9012197F1F748E0EB
:10010000508160FF02C0592B01C058235083E90180
:100110002197F1F76695415099F7772321F0908167
:100120008923808303C08081982B90831FBF5296C0
:100130008D919C9153970197F1F721E030E0C9012F
:10014000DF91CF911F91089508958FEF9FEF08954C
:1001500080E090E008958FEF9FEF089508951F933A
:10016000CF93DF93EC01162F6C896695617081E067
:100170006827812F0FD961E0812FBDD8612F70E0F2
:10018000FB01EF5CFF4FE491EC87FB01E95CFF4F63
:10019000E491F0E0EE0FFF1FED5BFF4F859194912E
:1001A0009E878D87DF91CF911F910895FC01138267
:1001B000128288EE93E0A0E0B0E084839583A6836A
:1001C000B78386E690E091838083138A128A8489BC
:1001D00040FB81F9848BCF01C2CFCF93DF93EC0139
:1001E0009A01AB0160E874E88EE190E00EDD243006
:1001F000310518F02350310902C021E030E03B8B7B
:100200002A8BDF91CF910895FC0110828FEF8183BB
:100210001382128282E2848386E9858317821682A2
:10022000089524E0769567952A95E1F7FC016583AA
:100230000895CF93DF93EC01862F68839FEF998316
:100240001B821A822091C4003091C5003F832E8307
:10025000D093C500C093C40060E09CD861E0888161
:100260004AD881E0DF91CF910895CF92DF92EF924B
:10027000FF92CF93DF93EC019B0177FD06C0653BB6
:1002800071052CF024EB30E002C020E030E029833F
:100290008C81C82ED12CE12CF12C97E0CC0CDD1CEC
:1002A000EE1CFF1C9A95D1F76D8170E0681B7109F7
:1002B000CB01770FAA0BBB0BBC01CD0147E0660F4A
:1002C000771F881F991F4A95D1F7032E000C440B06
:1002D000550BB7DCB901CA0124EB30E040E050E037
:1002E00094DCC701B601620F731F841F951F20E4C1
:1002F00030E040E050E089DC3B832A83DF91CF91FE
:10030000FF90EF90DF90CF9008956F927F928F9241
:100310009F92AF92BF92CF92DF92EF92FF921F9384
:10032000CF93DF93CDB7DEB7CDB6DEB635D78090AD
:10033000C0009090C100A090C200B090C3006815AA
:1003400079058A059B0558F024E1820E911CA11CB9
:10035000B11C681579058A059B0508F493C0609364
:10036000C0007093C1008093C2009093C300E091DD
:10037000C400F091C500DF0110E0109761F0129603
:100380008D919C911397892B09F01F5F16960D9004
:10039000BC91A02DF2CF112309F474C0812F90E0FD
:1003A000880F991FADB7BEB7A81BB90B0FB6F8944D
:1003B000BEBF0FBEADBF8DB79EB7019620E0309790
:1003C00089F042815381452B49F0A22FB0E0AA0F5A
:1003D000BB1FA80FB91FED93FC932F5F0680F78119
:1003E000E02DEDCF5C01FC0130E021E02117E1F0D0
:1003F0008280938041915191D4011296ED90FC90AE
:100400001397DA0112966D917C911397E616F70611
:1004100048F451834083AF0142505109DA018D9273
:100420009C9231E02F5FE2CF3111DCCF7C01912C27
:10043000D701ED91FD917D0161E08081ABD793946F
:100440009112F6CFF2B6812C912CE12C6F2C712CED
:10045000D501ED91FD915D0182819381860D971DFE
:100460002F2DF2B6F21608F493942F2DA4014F0D00
:10047000511D84179507A8F760E080818BD7E3941E
:10048000E112E6CF0FB6F894DEBE0FBECDBE0FB6BA
:10049000F894DEBE0FBECDBEDF91CF911F91FF90CD
:1004A000EF90DF90CF90BF90AF909F908F907F9014
:1004B0006F900895CF93DF9382ED90E07DD140E877
:1004C00055E260E070E083ED90E087DE62E770E087
:1004D00083ED90E01CD880E090E03BDCC0E6D0E00B
:1004E000888381E090E035DC8983609160007091C1
:1004F00061004AE050E083ED90E0EBD860E070E00E
:100500008AEE90E096DE68E978E08AEE90E089DE97
:100510006FE070E080E090E0DF91CF9170C68F9245
:100520009F92AF92BF92CF92DF92EF92FF920F9382
:100530001F93CF93DF931F92CDB7DEB766EC70E0C9
:1005400082ED90E086D5892B09F4ABC08091C8007C
:100550009091C900A091CA00B091CB008D3522EADC
:1005600092072FEFA207B105A1F128F58D3922E6F8
:1005700092072FEFA207B10509F457C08F369049B3
:10058000AF4FB10509F078C064EA70E083ED90E008
:10059000BED760EB70E083ED90E0B9D7609160006A
:1005A000709161004AE050E083ED90E092D883EDD5
:1005B00090E0B5D773C08D3122EE92072FEFA207DE
:1005C000B105D9F08F3F9F4FAF4FBF4F09F466C0C1
:1005D00053C06AE770E083ED90E099D760916000C6
:1005E000709161004AE050E083ED90E072D8809114
:1005F000600090916100019713C069E870E083ED9D
:1006000090E085D760916000709161004AE050E011
:1006100083ED90E05ED8809160009091610001963A
:10062000909361008093600039C06091600080E029
:1006300090E069838EDB6981681719F080E090E0B3
:1006400090DB6091610081E090E0698382DB6981E9
:10065000681719F081E090E084DB68E970E083EDD1
:1006600090E055D760916000709161004AE050E0E1
:1006700083ED90E02ED812C06EE170E083ED90E043
:1006800060D74091C8005091C9006091CA00709134
:10069000CB0020E130E083ED90E03CD882ED90E0AB
:1006A00033D183E8E6D54C018EE5881681E09806C3
:1006B000A4F41F921F921F9280E58F9324E1A22E33
:1006C000B12CC12CD12C1EE5E12EFF24F39400E0C7
:1006D00010E020E030E0A90119C02BE8821622E0EA
:1006E000920604F11F921F921F928AE58F9386E96A
:1006F000A82EB12CC12CD12C1AE8E12E12E0F12E3B
:1007000000E010E020E034E040E050E0B401092CCB
:10071000000C880B990B0ED88B010F900F900F9047
:100720000F9004C000916000109161008091E8007A
:100730009091E90008171907A9F04AE050E0B801C4
:1007400083ED90E0C0D76EEB70E083ED90E0DFD6F4
:100750004AE050E0B40183ED90E0BBD7B8018AEEE7
:1007600090E083DD1093E9000093E800CEDD6FE0B8
:1007700070E080E090E00F90DF91CF911F910F919A
:10078000FF90EF90DF90CF90BF90AF909F908F90B1
:1007900036C58AEE90E038DD40E061E083ED90E020
:1007A00005DD64E070E082ED90E003C083ED90E051
:1007B000D5CC6093F20008951CBC83E080BF89B75C
:1007C000846089BF81EA8FBD7894E2EFF0E082E037
:1007D000818310928E01808160E08DC51F920F92FF
:1007E0000FB60F9211242F933F934F935F936F9304
:1007F0007F938F939F93AF93BF93EF93FF9381EA80
:100800008FBD8091F20011D62091F4003091F50057
:100810002F5F3F4F3093F5002093F40090918E01AD
:100820009C3418F095E09093F3009091F30093308E
:10083000B9F018F4923039F056C0943051F1953037
:1008400009F44BC050C081114EC08091F4009091CA
:10085000F5008436910508F442C010928E011BC049
:10086000813009F040C0E0918E018E0F80938E019F
:10087000F0E08091F4009091F500EE0FFF1FEA5038
:10088000FF4F918380831092F5001092F40084E072
:1008900021C0811117C0E0918E0181E08E0F8093FD
:1008A0008E01F0E08091F4009091F500EE0FFF1FB3
:1008B000EA50FF4F918380831092F5001092F4006C
:1008C00083E008C08091F4009091F5008536910591
:1008D00050F085E08093F30006C0811104C01092AF
:1008E000F5001092F400FF91EF91BF91AF919F91AD
:1008F0008F917F916F915F914F913F912F910F90C9
:100900000FBE0F901F90189582E08093F300109215
:100910008E0108950F931F93CF93DF93EB01E8852A
:10092000F985828193818838910508F47EC082819F
:100930009381853E910508F078C080918E018430C6
:1009400081F484819581809760F084819581C79737
:1009500040F486819781099720F08681978142979C
:1009600028F180918E01843408F45FC084819581E0
:100970008234910508F459C08481958180379105AE
:1009800008F053C0DF0116968F010A571F4F40E051
:1009900050E0BA018D919C911197099708F445C0D8
:1009A0008D919C911197429798F03FC01F821E82B3
:1009B0008FEF9FEFDC018A839B83AC83BD8381E053
:1009C00090E09983888361E070E080E090E036C039
:1009D000CD01029612962D913C9113972631310547
:1009E000C8F012962D913C9113972732310590F45F
:1009F000440F551F661F771F41601496A017B1075B
:100A000049F680E290E09F838E834A835B836C8308
:100A10007D83D5CFFC01208131812630310528F03E
:100A2000FC01808191810D9720F060E070E0CB01A6
:100A300005C0440F551F661F771FDFCFDF91CF9191
:100A40001F910F910895CF93DF93DB0180918E0169
:100A50008A3108F463C01896ED91FC911997828150
:100A60009381859708F45AC08281938180349105DF
:100A700008F054C0369682E090E040E050E0BA01C1
:100A800020918E0130E0EC012196C217D3073CF48F
:100A9000EF012297288139812730310570F40197C1
:100AA0009595879517969C938E9316970C975CF463
:100AB00017961C921E92169731C0288139812E30CC
:100AC000310580F0ECCF12964D935D936D937C933E
:100AD000159782E090E08D939C9361E070E080E058
:100AE00090E025C0208131812331310568F02081DB
:100AF00031812232310540F4440F551F661F771FA4
:100B0000416002963496BCCF208131812A30310574
:100B100028F0208131812331310520F060E070E040
:100B2000CB0105C0440F551F661F771FEACFDF9129
:100B3000CF9108954F925F926F927F928F929F9282
:100B4000AF92BF92CF92DF92EF92FF920F931F93DB
:100B5000CF93DF93DA01CD91DC91FB018285938500
:100B6000C817D9070CF0BCC0CE01880F991F0084AC
:100B7000F185E02DE80FF91FC080D180C170DD271D
:100B8000F1E0CF27209719F484E690E002C08CE9C9
:100B90009FEF59014A017801E80EF91EB7010F2CA9
:100BA000000C880B990B0FD72B013C0120E030E0A3
:100BB00040E45FE394D720E030E048E452E468D6B4
:100BC000CFD6C616D706B4F020E030E040EA5FE3A7
:100BD000C301B20184D720E030E048E452E458D6A3
:100BE00020E030E040E85FE3EFD5BAD66C157D0534
:100BF0000CF05DC0E00EF11EB7010F2C000C880B4D
:100C0000990BE1D62B013C0120E030E040E45FE3AA
:100C100066D720E030E048E452E43AD6A1D6C616C2
:100C2000D706ACF020E030E040EA5FE3C301B20158
:100C300056D720E030E048E452E42AD620E030E005
:100C400040E85FE3C1D58CD66C157D059CF5B701F6
:100C5000600F711F072E000C880B990BB4D62B0167
:100C60003C0120E030E040E45FE339D720E030E0B1
:100C700048E452E40DD674D6C616D706A4F120E097
:100C800030E040EA5FE3C301B20129D720E030E061
:100C900048E452E4FDD520E030E040E85FE394D53D
:100CA0005FD66C157D05FCF023E030E005C021E047
:100CB00030E002C022E030E0D5018D919C91119787
:100CC00001968217930744F0F50111821082D40136
:100CD0008D919C91119701968D939C93CE0105C0A7
:100CE00081E090E002C08FEF9FEFDF91CF911F91E5
:100CF0000F91FF90EF90DF90CF90BF90AF909F90BB
:100D00008F907F906F905F904F9008954F925F9279
:100D10006F927F928F929F92AF92BF92CF92DF920B
:100D2000EF92FF920F931F93CF93DF9300D000D0E9
:100D3000CDB7DEB720918E012D3008F47AC07B014B
:100D40006C0181E090E09C838B831A82198209E711
:100D500013E09E012F5F3F4FAE014D5F5F4FC60115
:100D6000E9DE892B09F065C009E713E09E012F5FDA
:100D70003F4FAE014D5F5F4FB701C601DBDE01970C
:100D800009F057C09E012F5F3F4FAE014D5F5F4F8F
:100D9000B701C601CFDE892B09F04BC0A12CB12CC5
:100DA000412C512C320180918E0190E02B813C81AD
:100DB0002817390774F509E713E09E012F5F3F4FAD
:100DC000AE014D5F5F4FB701C601B4DE4C019E011D
:100DD0002F5F3F4FAE014D5F5F4FB701C601AADEE7
:100DE00021E08216910449F4892B19F5440C551C15
:100DF000661C771C689440F808C08928D1F40197D4
:100E0000C1F4440C551C661C771C8FEFA81AB80A55
:100E1000CACFF701B782A68242825382648275826A
:100E200083E090E09183808361E070E080E090E077
:100E300003C060E070E0CB010F900F900F900F9017
:100E4000DF91CF911F910F91FF90EF90DF90CF90A6
:100E5000BF90AF909F908F907F906F905F904F90DA
:100E600008952F923F924F925F926F927F928F924E
:100E70009F92AF92BF92CF92DF92EF92FF920F9329
:100E80001F93CF93DF9300D000D0CDB7DEB7DB0147
:100E90001A962D913C911B971216130624F060E0D0
:100EA00070E0CB01BFC021E030E03C832B83DB014D
:100EB0001896ED91FC9119972281338129323105E1
:100EC00070F3228133812734310548F722E030E086
:100ED0003C832B83248135812B30310500F3248121
:100EE000358125313105D8F67B016C0183E090E036
:100EF0009C838B831A8219820CEB11E09E012F5F79
:100F00003F4FAE014D5F5F4FC60114DE892B39F6AE
:100F10000CEB11E09E012F5F3F4FAE014D5F5F4F25
:100F2000B701C60107DE019709F0B9CFA12CB12C9A
:100F3000212C312C21012B813C81F7018285938565
:100F4000281739070CF060C00CEB11E09E012F5FF1
:100F50003F4FAE014D5F5F4FB701C601EBDD3C0176
:100F6000B3E0AB16B10489F00CEB11E09E012F5FEA
:100F70003F4FAE014D5F5F4FB701C601DBDD4C0156
:100F8000E3E0AE16B104F9F40FC00CEB11E09E01E2
:100F90002F5F3F4FAE014D5F5F4FB701C601CADD06
:100FA0006816790609F37BCF0CEB11E09E012F5FE9
:100FB0003F4FAE014D5F5F4FB701C601BBDD8816E5
:100FC000990609F06CCF6114710479F48A94892828
:100FD00009F065CFD201C101880F991FAA1FBB1F5D
:100FE0001C012D01689420F80BC06A94672809F051
:100FF00056CF892809F053CF220C331C441C551CB2
:10100000AFEFAA1ABA0A97CFB782A682228233829A
:101010004482558284E090E09183808361E070E0B7
:1010200080E090E00F900F900F900F90DF91CF91A4
:101030001F910F91FF90EF90DF90CF90BF90AF90F6
:101040009F908F907F906F905F904F903F902F90E8
:1010500008950F931F93CF93DF93EB0126EF30E0BA
:101060003987288720918E0130E03B872A8720919D
:10107000F300253089F58C014DDC672B682B692B3B
:1010800019F5BE01C801DFDC672B682B692BE1F481
:10109000BE01C8013BDE672B682B692BA9F4BE019A
:1010A000C801DFDE672B682B692B71F48A859B856D
:1010B00006976CF08FEF9FEF998388831F821E82C3
:1010C0001A821B821C821D8281E090E007C082E0B0
:1010D0008093F30010928E0180E090E0DF91CF9139
:1010E0001F910F91089580B7807F80BF80B780687F
:1010F00080BF8CB580648CBD8FEF8DBD80B787605D
:1011000080BF08951F920F920FB60F9211242F9354
:101110003F938F939F93AF93BF9380919001909152
:101120009101A0919201B091930130918F0126E03D
:10113000230F2D3730F029E8230F0396A11DB11D91
:1011400003C00296A11DB11D20938F0180939001D1
:1011500090939101A0939201B09393018091940197
:1011600090919501A0919601B09197010196A11DD2
:10117000B11D8093940190939501A0939601B09333
:101180009701BF91AF919F918F913F912F910F90B8
:101190000FBE0F901F9018952FB7F8946091900193
:1011A0007091910180919201909193012FBF0895C8
:1011B0003FB7F8948091940190919501A091960188
:1011C000B091970122B708B601FE05C02F3F19F074
:1011D0000196A11DB11D3FBFBA2FA92F982F8827B7
:1011E000820F911DA11DB11DBC01CD0143E0660F11
:1011F000771F881F991F4A95D1F708950895CF92B8
:10120000DF92EF92FF92CF93DF936B017C01D0DFEF
:10121000EB01C114D104E104F10479F0EFDFC8DF80
:101220006C1B7D0B683E7340A0F381E0C81AD108A7
:10123000E108F108C851DC4FF2CFDF91CF91FF9068
:10124000EF90DF90CF9008958AB582608ABD8AB50D
:1012500081608ABD83B7887F836083BF789489B7B4
:10126000826089BF40DF86B18877866886B9379A01
:1012700008958F70909198019295990F990F907C95
:10128000892B87B987B19091980192FB222720F989
:1012900030E094E0220F331F9A95E1F7282B27B90D
:1012A000369A3699FECF84B125B190E0922B0895FD
:1012B000813031F48AB58F778ABD8AB58F7B07C0BC
:1012C000823039F48AB58F7D8ABD8AB58F7E8ABD1A
:1012D0000895833039F480B78F7D80BF80B78F7ECB
:1012E00080BF0895843031F48CB58F7D8CBD8CB572
:1012F0008F7E8CBD0895CF93DF9387FF11C08F77CA
:1013000041F0813041F0823041F0833041F08FEF85
:1013100007C085E005C082E003C084E001C083E02F
:1013200090E0FC01EF5CFF4F2491FC01E95CFF4F72
:101330008491882361F190E0880F991FFC01E75B9D
:10134000FF4FC591D491FC01ED5BFF4FA591B49186
:10135000611109C09FB7F894888120958223888302
:10136000EC912E230BC0623061F49FB7F894388162
:10137000822F809583238883EC912E2B2C939FBF03
:1013800006C08FB7F894E8812E2B28838FBFDF919A
:10139000CF9108950F931F93CF93DF931F92CDB7F3
:1013A000DEB787FF11C08F7741F0813041F0823086
:1013B00041F0833041F08FEF07C085E005C082E047
:1013C00003C084E001C083E0282F30E0F901E55D2F
:1013D000FF4F8491F901EF5CFF4F1491F901E95C33
:1013E000FF4F04910023D9F0882319F0698360DF4F
:1013F0006981E02FF0E0EE0FFF1FED5BFF4FA5913D
:10140000B4918FB7611106C0F8949C91E12FE095DB
:10141000E92303C0F894EC91E12BEC938FBF0F907C
:10142000DF91CF911F910F910895CF93DF9387FFA5
:1014300011C08F7741F0813041F0823041F083302C
:1014400041F08FEF07C085E005C082E003C084E073
:1014500001C083E0282F30E0F901E55DFF4F849162
:10146000F901EF5CFF4FD491F901E95CFF4FC491A2
:10147000CC2389F081111CDFEC2FF0E0EE0FFF1F71
:10148000E35CFF4FA591B491EC91ED2381E090E0F6
:1014900021F480E002C080E090E0DF91CF910895D8
:1014A000CF92DF92EF92FF920F931F93CF93DF9330
:1014B0006C01EB017B01E40EF51E00E010E0CE159F
:1014C000DF0561F06991D601ED91FC910190F08109
:1014D000E02DC6010995080F191FF1CFC801DF9152
:1014E000CF911F910F91FF90EF90DF90CF900895D3
:1014F000FB0101900020E9F73197AF01461B570B24
:10150000DC01ED91FC910280F381E02D0994F0CF94
:10151000DC01ED91FC910190F081E02D09940F9395
:101520001F93CF93DF93EC016DE0F2DF8C016AE053
:10153000CE01EEDF800F911FDF91CF911F910F91B0
:101540000895EF92FF920F931F93CF93DF938C0137
:101550007B01C0E0D0E0F701EC0FFD1F6491662332
:1015600061F0D801ED91FC910190F081E02DC8016E
:101570000995892B11F02196EECFCE01DF91CF9105
:101580001F910F91FF90EF9008958F929F92AF92CD
:10159000BF92CF92DF92EF92FF920F931F93CF9360
:1015A000DF93CDB7DEB7A1970FB6F894DEBF0FBEBD
:1015B000CDBF6C01142FE52FCB01022F19A22230D1
:1015C00008F40AE07E0121E2E20EF11C802E912C4B
:1015D000A12CB12C612F7E2FA5019401F4D2802F74
:1015E000622FE8D2181B81E0E81AF1081A3014F4CF
:1015F000105D01C0195CF7011083122FE32FCA019F
:10160000232B242B252B31F7B701C60171DFA196BF
:101610000FB6F894DEBF0FBECDBFDF91CF911F9103
:101620000F91FF90EF90DF90CF90BF90AF909F9081
:101630008F900895CF92DF92EF92FF920F931F93B6
:10164000CF93DF93EC016A017B012115310579F419
:10165000E881F9810190F081E02D642FDF91CF9135
:101660001F910F91FF90EF90DF90CF9009942A3057
:10167000310501F577FF0CC06DE24ADF8C01F09473
:10168000E094D094C094C11CD11CE11CF11C02C098
:1016900000E010E02AE0B701A601CE0176DF800F5E
:1016A000911FDF91CF911F910F91FF90EF90DF90ED
:1016B000CF900895DF91CF911F910F91FF90EF9000
:1016C000DF90CF9062CF9A01AB01770F660B770B5B
:1016D000B1CF0F931F93CF93DF93EC019A01AB012E
:1016E000770F660B770BA6DF8C01CE0118DF800F1A
:1016F000911FDF91CF911F910F9108952115310511
:1017000041F4DC01ED91FC910190F081E02D642F1A
:1017100009943BCF0F931F93CF93DF93EC01EEDF40
:101720008C01CE01FCDE800F911FDF91CF911F91C4
:101730000F9108954F925F926F927F92AF92BF92F6
:10174000CF92DF92EF92FF920F931F93CF93DF938D
:10175000CDB7DEB729013A01621B730B840B950BE1
:1017600029893A894B895C892A193B094C095D0909
:1017700068D2B22FA32FF42FE52FA80197012419C7
:101780003509460957096B2F7A2F8F2F9E2F3DD28F
:10179000CA01B9016A0D7B1D8C1D9D1DDF91CF9182
:1017A0001F910F91FF90EF90DF90CF90BF90AF907F
:1017B0007F906F905F904F90089581B781BF44DD17
:1017C00079D6ADD6FECF5058BB27AA270ED04DC133
:1017D0003ED130F043D120F031F49F3F11F41EF49C
:1017E00033C10EF4E095E7FB29C1E92F4FD180F317
:1017F000BA17620773078407950718F071F49EF50E
:1018000067C10EF4E0950B2EBA2FA02D0B01B90184
:1018100090010C01CA01A0011124FF27591B99F066
:10182000593F50F4503E68F11A16F040A22F232F72
:10183000342F4427585FF3CF469537952795A795C2
:10184000F0405395C9F77EF41F16BA0B620B730B69
:10185000840BBAF09150A1F0FF0FBB1F661F771FDA
:10186000881FC2F70EC0BA0F621F731F841F48F48F
:10187000879577956795B795F7959E3F08F0B3CF15
:101880009395880F08F09927EE0F979587950895FF
:101890000CD0EBC0E3D040F0DAD030F021F45F3F61
:1018A00019F0CCC0511115C1CFC0F0D098F39923D5
:1018B000C9F35523B1F3951B550BBB27AA27621714
:1018C0007307840738F09F5F5F4F220F331F441F59
:1018D000AA1FA9F333D00E2E3AF0E0E830D0915091
:1018E0005040E695001CCAF729D0FE2F27D0660F7E
:1018F000771F881FBB1F261737074807AB07B0E8BD
:1019000009F0BB0B802DBF01FF2793585F4F2AF0D2
:101910009E3F510568F092C0DCC05F3FECF3983EFB
:10192000DCF3869577956795B795F7959F5FC9F72F
:10193000880F911D9695879597F90895E1E0660FB8
:10194000771F881FBB1F621773078407BA0720F031
:10195000621B730B840BBA0BEE1F88F7E09508959A
:1019600004D06894B111B5C0089598D088F09F57FD
:1019700090F0B92F9927B751A0F0D1F0660F771FDB
:10198000881F991F1AF0BA95C9F712C0B13081F0BB
:101990009FD0B1E008959CC0672F782F8827B85F4B
:1019A00039F0B93FCCF3869577956795B395D9F71C
:1019B0003EF490958095709561957F4F8F4F9F4F26
:1019C0000895E89409C097FB3EF490958095709532
:1019D00061957F4F8F4F9F4F9923A9F0F92F96E97B
:1019E000BB279395F695879577956795B795F111F0
:1019F000F8CFFAF4BB0F11F460FF1BC06F5F7F4F8D
:101A00008F4F9F4F16C0882311F096E911C077239E
:101A100021F09EE8872F762F05C0662371F096E8A7
:101A2000862F70E060E02AF09A95660F771F881F76
:101A3000DAF7880F9695879597F9089597F99F6734
:101A400080E870E060E008959FEF80EC0895002446
:101A50000A941616170618060906089500240A9413
:101A600012161306140605060895092E0394000C99
:101A700011F4882352F0BB0F40F4BF2B11F460FF28
:101A800004C06F5F7F4F8F4F9F4F089557FD905851
:101A9000440F551F59F05F3F71F04795880F97FB32
:101AA000991F61F09F3F79F08795089512161306EC
:101AB0001406551FF2CF4695F1DF08C0161617061B
:101AC0001806991FF1CF8695710561050894089550
:101AD000E894BB2766277727CB0197F908950AD0AA
:101AE000C4CFB5DF28F0BADF18F0952309F0A6CFF0
:101AF000ABCFEFCFCBDFA8F39923D9F35523C9F3AD
:101B0000950F50E0551FAA27EE27FF27BB2700247B
:101B10000894679520F4E20FF31FB41F0A1E220FEA
:101B2000331F441FAA1F6695A9F7779530F4F30F6A
:101B3000B41F0A1E121E08F46395330F441FAA1F18
:101B4000221F769599F7879520F4B40F0A1E121E6E
:101B5000631F440FAA1F221F331F8695A9F7862FE4
:101B6000712D602D11249F5750408AF0E1F0882399
:101B70004AF0EE0FFF1FBB1F661F771F881F915093
:101B80005040A9F79E3F510570F058CFA2CF5F3F5C
:101B9000ECF3983EDCF3869577956795B795F795C6
:101BA000E7959F5FC1F7FE2B880F911D969587954E
:101BB00097F90895002480FD060E660F11F08695B2
:101BC000D1F7802D0895A1E21A2EAA1BBB1BFD019F
:101BD0000DC0AA1FBB1FEE1FFF1FA217B307E4070C
:101BE000F50720F0A21BB30BE40BF50B661F771F64
:101BF000881F991F1A9469F7609570958095909544
:101C00009B01AC01BD01CF010895052E97FB16F491
:101C100000940FD057FD05D0D6DF07FC02D046F464
:101C200008C050954095309521953F4F4F4F5F4FDD
:101C3000089590958095709561957F4F8F4F9F4F38
:101C4000089568940013E894A0E0B0E0E9E2FEE0B3
:101C50001DC0EFEFE7F959016A015E23550FEE0849
:101C6000FE2C87019B01AC019E23990F660B762FFA
:101C7000CB0141D0CDB7DEB7EAE024C02F923F922E
:101C80004F925F926F927F928F929F92AF92BF928C
:101C9000CF92DF92EF92FF920F931F93CF93DF9338
:101CA000CDB7DEB7CA1BDB0B0FB6F894DEBF0FBE95
:101CB000CDBF09942A88398848885F846E847D84E2
:101CC0008C849B84AA84B984C884DF80EE80FD80E4
:101CD0000C811B81AA81B981CE0FD11D0FB6F8945A
:101CE000DEBF0FBECDBFED010895EE0FFF1F0590C3
:101CF000F491E02D0994DF93CF939F92A0E49A2E64
:101D00000024D001E001F00116950795F794E794BF
:101D1000D794C794B794A79448F41068A20FB31F40
:101D2000C41FD51FE61FF71F081E191E220F331FE1
:101D3000441F551F661F771F881F991F9A9421F70C
:101D40009D01AE01BF01C00111249F90CF91DF9191
:101D50000895E199FECF9FBB8EBBE09A99278DB382
:101D60000895262FE199FECF1CBA9FBB8EBB2DBBD9
:101D70000FB6F894E29AE19A0FBE0196089510E02A
:101D8000C9E2D0E003C0FE01B0DF2196CA32D1071C
:061D9000D1F7F894FFCF2B
:101D96005200000000005000500AA800A500AB0049
:101DA600A4007265626F6F740A005B43482D5D2064
:101DB600706F735F6D696420005B43482B5D207014
:101DC6006F736D69642020005B43485D20777269FC
:101DD6007465200076616C75652064756D700A0007
:101DE600706F735F6D6964646C6520202D20200020
:00000001FF
